:020000040800F2
:1000000000060020E1010008FD0C0008010D0008B9
:10001000590D0008010D00082D0D0008E30100082E
:10002000E3010008E3010008E3010008451A0008A5
:10003000E3010008E3010008E3010008E301000810
:10004000E3010008E3010008E3010008E301000800
:10005000E3010008E3010008251E00084D1E00080A
:10006000751E00089D1E0008C51E0008E30100085B
:10007000E3010008E3010008E3010008E3010008D0
:10008000E3010008E3010008E3010008E3010008C0
:10009000E3010008E3010008E3010008ED1E000889
:1000A000E3010008E3010008E3010008E3010008A0
:1000B000D51F0008E3010008E3010008E301000880
:1000C000E3010008E3010008E3010008E301000880
:1000D000E3010008C11F0008E3010008E301000874
:1000E000511F0008E3010008E3010008E3010008D4
:1000F000E3010008E3010008E3010008E301000850
:10010000E3010008E3010008E3010008E30100083F
:10011000E3010008E3010008E3010008E30100082F
:10012000E3010008E3010008E3010008E30100081F
:10013000E3010008E3010008E3010008E30100080F
:10014000E3010008E3010008E3010008E3010008FF
:10015000E3010008E3010008E3010008E3010008EF
:10016000E3010008E3010008E3010008E3010008DF
:10017000E3010008E3010008E3010008E3010008CF
:10018000E3010008E3010008E3010008E3010008BF
:10019000E3010008E3010008E3010008E3010008AF
:1001A000E3010008E3010008E3010008E30100089F
:1001B000E3010008E3010008E3010008E30100088F
:1001C000E3010008E3010008E3010008E30100087F
:1001D000E3010008E3010008E3010008E30100086F
:1001E00002E000F000F8FEE772B63A4880F30888B3
:1001F000394880F3098839484EF60851CEF200019B
:10020000086040F20000CCF200004EF63471CEF2ED
:1002100000010860BFF34F8FBFF36F8F40F2000003
:10022000C0F2F0004EF68851CEF200010860BFF334
:100230004F8FBFF36F8F4FF00000E1EE100A4EF6C4
:100240003C71CEF200010860062080F31488BFF3F1
:100250006F8F01F073FC01F053FC01F099FC4FF03B
:1002600055301F491B4A91423CBF41F8040BFAE745
:100270001C49194A91423CBF41F8040BFAE71A495C
:100280001A4A1B4B9A423EBF51F8040B42F8040B2A
:10029000F8E700201749184A91423CBF41F8040B87
:1002A000FAE701F031FC01F0BFFC144C144DAC42F4
:1002B00003DA54F8041B8847F9E700F041F8114CC1
:1002C000114DAC4203DA54F8041B8847F9E701F0FA
:1002D00019BC0000000600200022002000000008D9
:1002E0000000002000060020C82100080022002095
:1002F0001022002010220020F4270020E001000836
:10030000E0010008E0010008E00100082DE9F04FDD
:100310002DED108AC1F80CD0C3689D46BDEC108A43
:10032000BDE8F08F002383F311882846A047002002
:1003300001F01AF9FEE701F0A5F800DFFEE7000082
:1003400038B501F051FB054601F076FB0446D0B903
:100350000F4B9D4219D001339D420DBF00254FF434
:100360007A7504460124002001F048FB0CB100F02E
:1003700059F800F0A3FC00F095FB284600F0A6F821
:1003800000F050F8F9E70025EDE70546EBE700BF80
:10039000010007B008B500F057FBA0F12003584258
:1003A000584108BD07B5054B02211B88ADF8043044
:1003B00001A800F067FB03B05DF804FB942000087F
:1003C00010B5202383F311881248C3680BB101F0E4
:1003D00045F90023104A0F484FF47A7101F000F9F3
:1003E000002383F311880D4C236813B12368013B6C
:1003F0002360636813B16368013B6360084B1B783B
:1004000033B9636823B9022000F0E6FB322363604E
:1004100010BD00BF10220020C10300082C230020C3
:100420002422002010B5204B204953F8042F01321C
:1004300000D110BD8B42F8D11D4C1E4B22689A4250
:1004400030D91D4B9B6803F1006303F5F0439A42DA
:1004500028D2002000F040FB184B0220187000F05A
:10046000B3FB174B9A6D00229A65996F9A67996F43
:10047000D96DDA65D96FDA67D96F196E1A66D3F854
:100480008010C3F88020D3F8803072B60D4A0E4B2E
:1004900013601B682268202181F311889D4683F335
:1004A0000888104710BD00BFFC7700081C780008C2
:1004B00004780008FF770008002200202422002092
:1004C0000010024008ED00E0007800082DE9F04F30
:1004D00099B0B94D00902022FF2110A8AC6800F01F
:1004E0008FFBB64A01951378A3B9B5480121C360C3
:1004F0001170202383F31188C3680BB101F0AEF8AB
:100500000023B04AAE484FF47A7101F069F8002335
:1005100083F31188009BAC4A03B11360AB4B009D81
:10052000029300261E705660B2463746B14601203F
:1005300000F04AFB002D00F02582A34B1B68002B26
:1005400040F0208219B0BDE8F08F0220FFF722FFB3
:10055000002840F01082009B002E08BF1D469C4BD7
:1005600002211B88ADF82C300BA800F08BFADEE7D7
:100570004FF47A7000F068FAB0F10008EBDB02206B
:10058000FFF708FF0028E6D008F1FF38B8F1040FA4
:1005900000F2F381DFE808F0031E2124270018A8E9
:1005A000052340F8343D042100F06CFA012303FADE
:1005B00008F848EA0A0A5FFA8AFA4FF0000900F0E0
:1005C00073FB27B10AF00B030B2B08BF0025FFF7C5
:1005D000E9FEACE704217848E6E704217D48E3E73B
:1005E00004217D48E0E74FF01C09484600F076FA08
:1005F00009F104090B9004210BA800F043FAB9F1AA
:100600002C0FF2D1D2E7002FA5D00AF00B030B2B51
:10061000A1D10220FFF7BEFE804600289BD001201A
:100620006A4E00F059FA0220307000F0CDFA00272F
:100630005FFA87FB584600F05FFA054688B15846D6
:1006400000F06AFA01370028F2D146460025634BD4
:1006500002211B88ADF82C300BA800F013FA474696
:1006600065E701230220337000F0A6FA2C46019BB7
:100670009B689C4206D2204600F030FA0130E4D15B
:100680000434F4E7029B00241C704F4B46465C6028
:100690004746254693E7002F3FF45DAF0AF00B0372
:1006A0000B2B7FF458AF029B0220187000F08CFADD
:1006B000322000F0C9F9B0F1000BFFF64CAF1BF08F
:1006C00003087FF448AF019B996804EB0B028A4250
:1006D0003FF641AFBBF5807F3FF63DAF404A039206
:1006E000D8450FDA4FF47A7000F0AEF9049004990F
:1006F0000029FFF630AF039A049908F8021008F1B8
:100700000108ECE7C820FFF745FE804600283FF4CB
:1007100022AF1F2C11D8C4F120075F4528BF5F46C8
:1007200010AB24F003003A462D49184400F05EFA5D
:100730003A46FF212A4800F063FA4FEAAB03DAB2E7
:1007400027490393204600F063FA074600283FF448
:100750007EAF039B04EB830431E70220FFF71AFE10
:1007600000283FF4F8AE00F0F1F900283FF4F3AEB2
:100770004FF000084346019A9268904532D2B8F192
:100780001F0F12D8109A01320FD028F0030218A9B7
:100790000A4452F8202C0B92184604220BA900F0B0
:1007A000EFFA08F104080346E5E74046039300F03A
:1007B00095F9039B0B90EFE70022002028230020EF
:1007C00010220020C10300082C2300202422002036
:1007D000962000080422002008220020982000080B
:1007E0002822002018A8042140F84C3D00F04AF9C6
:1007F000E5E618A8002340F8343D642100F038F9FC
:1008000000287FF4A8AE0220FFF7C4FD00283FF4C3
:10081000A2AE0B9800F092F918AB43F8480D0421F2
:100820001846E3E718A8002340F8343D642100F09F
:100830001FF900287FF48FAE0220FFF7ABFD0028E0
:100840003FF489AE0B9800F07BF918AB43F8440DE8
:10085000E5E70220FFF79EFD00283FF47CAE00F0A4
:1008600085F918AB43F8400DD9E70220FFF792FD58
:1008700000283FF470AE0BA9142000F07DF98046EB
:1008800018A8042140F83C8D00F0FCF841460BA864
:10089000ACE7322000F0D8F8B0F10008FFF65BAE0C
:1008A00018F0030F7FF457AE019A926808EB090322
:1008B00093423FF650AE0220FFF76CFD00283FF454
:1008C0004AAE28F00308C844C1453FF478AE484614
:1008D00000F004F904210A900AA800F0D3F809F105
:1008E0000409F1E74FF47A70FFF754FD00283FF454
:1008F00032AE00F02BF9002842D0109B01330BD010
:10090000082210A9002000F083F9002838D0202206
:10091000FF2110A800F074F9FFF744FD364800F0FD
:1009200029FE0FE6002F3FF416AE0AF00B030B2B47
:100930007FF411AE18A8002340F8343D642100F084
:1009400097F8804600287FF406AE0220FFF722FDCC
:1009500000283FF400AE0390FFF724FD41F28830F9
:1009600000F008FE0B9800F0B5F900F09DF9039B2C
:1009700045461F46DBE5074621E64FF00009EAE55C
:10098000B84664E6002000F05FF80490049B002B5A
:10099000FFF6D0AD012000F00FF9049B213B122B94
:1009A0003FF6C5AD01A252F823F000BF4B05000889
:1009B00071050008070600082F0500082F0500082C
:1009C0002F05000897060008930800085B07000839
:1009D000F307000825080008530800082F05000841
:1009E0006B0800082F050008E5080008BF0500088F
:1009F0002F05000825090008A086010070B50F4BDF
:100A00000C4619780131C9B2012906460FD80C48A5
:100A100003681D6A4FF47A73534331462246A84750
:100A2000844204D1074B00221A70012070BD4FF49C
:100A3000FA7000F09FFD002070BD00BF0C22002066
:100A40007C2300207823002007B502AB002203F8A6
:100A5000012D012102461846FFF7D0FF20B19DF875
:100A6000070003B05DF804FB4FF0FF30F9E700002A
:100A70000A4608B50421FFF7C1FF80F00100C0B2AB
:100A8000404208BD30B4054C2368DD69044B0A467A
:100A9000AC460146204630BC604700BF7C230020A6
:100AA000A086010070B500F0A1FE094C094E20801F
:100AB000002530682388834208D900F093FE33680C
:100AC00005440133B5F5F04F3360F2D370BD00BF7C
:100AD0007A2300203423002000F036BF00F10060AC
:100AE00000F5F0400068704700F10060920000F5EA
:100AF000F04000F0B7BE0000054B1A68054B1B889C
:100B00009B1A834202D9104400F06CBE002070474B
:100B1000342300207A23002038B5074D0446286886
:100B2000204400F065FE28B928682044BDE838401C
:100B300000F070BE38BD00BF342300200020704795
:100B4000014BC058704700BF9075FF1F064991F8D0
:100B5000243033B100230822086A81F82430FFF7DB
:100B6000C3BF0120704700BF38230020014B186825
:100B7000704700BF002004E070B50E4B5C6893F92D
:100B8000086001380A18013C0B4693420FD214F951
:100B9000015F581C1DB1034600F8015CF5E72C24E9
:100BA00082421C7001D9981C5E70401A70BD1846B4
:100BB000FBE700BF7C230020022802BF4FF09043D8
:100BC00020229A6170470000022802BF4FF0904334
:100BD0004FF400129A617047022801BF4FF0904213
:100BE000536983F0200353617047000010B5002360
:100BF000934203D0CC5CC4540133F9E710BD00002C
:100C000002440346934202D003F8011BFAE77047FF
:100C10002DE9F047234C94F82430054688461746C2
:100C200083BB2E46DFF87C90C7B394F824302BB9F1
:100C30002022FF2148462662FFF7E2FF94F82400B5
:100C4000C0F10805BD4228BF3D465FFA85FAAD00F8
:100C500041462A4604EB8000FFF7C8FF94F8243091
:100C6000A7EB0A079A445FFA8AFABAF1080F2E44F2
:100C7000A844FFB284F824A0D6D1FFF767FF00286C
:100C8000D2D108E0266A06EB8306B042CAD0FFF74D
:100C90005DFF0028C5D10020BDE8F0870120BDE838
:100CA000F08700BF38230020024B1A78024B1A70DD
:100CB000704700BF782300200C220020034904481D
:100CC0004FF4E1330B6000F01DBB00BF6023002038
:100CD0007C230020074B10B500210446182218463B
:100CE000FFF78EFF04600146BDE81040024800F0A7
:100CF00009BB00BF602300207C230020FEE700002A
:100D000000B59BB0EFF3098168226846FFF76EFFDC
:100D1000EFF30583044B9A6BDA6A9A6A9A6A9A6AC5
:100D20009A6A9A6A9B6AFEE700ED00E000B59BB004
:100D3000EFF3098168226846FFF758FFEFF3058358
:100D4000044B9A6B9A6A9A6A9A6A9A6A9A6A9B6A36
:100D5000FEE700BF00ED00E000B59BB0EFF30981B6
:100D600068226846FFF742FFEFF30583034B5A6B97
:100D70009A6A9A6A9A6A9A6A9B6AFEE700ED00E0AC
:100D800030B5084D0A4491420BD011F8013B0924BB
:100D90005840013CF7D040F300032B4083EA500059
:100DA000F7E730BD2083B8ED026843681143016066
:100DB00003B1184770470000024A136843F0C003AC
:100DC000136070470038014013B50E4C204600F008
:100DD0008DFA04F11400009400234FF480720A4944
:100DE00000F04EF90094094B09494FF4807204F168
:100DF000380000F0C7F9074BE365074B236602B0E4
:100E000010BD00BF7C230020E8230020B90D00089E
:100E1000E824002000380140007A030A244B00290E
:100E200008BF1946037C012B30B50FD1214B9842E6
:100E30000CD1214B1A6E42F480421A66D3F88020FE
:100E400042F48042C3F88020D3F880300A68036EF1
:100E5000C46D816603EB5203B3FBF2F34A681504D9
:100E600042BF23F0070503F0070343EA4503E360AD
:100E70008B6843F040036360CB6843F00103A360D9
:100E800042F4967343F00103236051054FF0FF33A2
:100E9000236205D512F0102205D0B2F1805F04D094
:100EA00080F8643030BD7F23FAE73F23F8E700BFC6
:100EB0009C2000087C230020001002402DE9F04710
:100EC000C66D3768F46934620546200719D014F0FE
:100ED000080F0CBF00218021E20748BF41F020012C
:100EE000A30748BF41F04001600748BF41F480714B
:100EF000202383F31188281DFFF756FF002383F377
:100F00001188E2050AD5202383F311884FF400717C
:100F1000281DFFF749FF002383F311884FF02009B4
:100F20004FF0000A14F0200831D13B0616D54FF0DF
:100F3000200905F1380A200610D589F3118850469A
:100F400000F054F900282FDA0821281DFFF72CFFA4
:100F500027F080033360002383F3118879060DD5D1
:100F600062060BD5202383F31188EA6C2B6D9A421D
:100F700001D12B6CEBB9002383F31188E30620D554
:100F8000AA6E1369EBB15069BDE8F047184789F3C1
:100F90001188736A95F864102846194000F0C0F96A
:100FA0008AF31188F469BDE7B06288F31188F469A7
:100FB000C1E71021281D27F04007FFF7F5FE376035
:100FC000D9E7BDE8F0870000F8B5154682680669E4
:100FD000AA420B46816938BF8568761AB542044635
:100FE00007D218462A46FFF701FEA3692B44A361E6
:100FF0000DE011D932461846FFF7F8FDAF1B3A460F
:10100000E1683044FFF7F2FDE2683A44A261A36868
:101010005B1BA3602846F8BD18462A46FFF7E6FD8D
:10102000E368E4E783682DE9F041044693421546FE
:10103000266938BF85684069361AB5420F4606D220
:101040002A46FFF7D3FD63692B4463610DE012D993
:101050003246A5EB0608FFF7C9FD4246B919E0681C
:10106000FFF7C4FDE26842446261A3685B1BA360B2
:101070002846BDE8F0812A46FFF7B8FDE368E4E7BB
:1010800010B50A440024C361029B00604060846084
:10109000C160816141610261036210BD08B582696E
:1010A0004369934201D1826882B9826801328260C9
:1010B0005A1C42611970426903699A4201D3C3689C
:1010C0004361002100F072FA002008BD4FF0FF30AC
:1010D00008BD000070B5202304460E4683F3118836
:1010E000A568A5B1A368A269013BA360531CA361D5
:1010F00015782269934224BFE368A361E3690BB1C9
:1011000020469847002383F31188284670BD314656
:10111000204600F03BFA0028E2DA85F3118870BD22
:101120002DE9F74F05460F4690469A46D0F81C9099
:10113000202686F311884FF0000B144664B1224636
:1011400039462846FFF740FF034668B9514628460E
:1011500000F01CFA0028F1D0002383F31188A8EBDB
:10116000040003B0BDE8F08FB9F1000F03D0019087
:101170002846C847019B8BF31188E41A1F4486F365
:101180001188DBE7C16081614161C3611144009B4B
:10119000006040608260016103627047F8B50446F8
:1011A0000E461746202383F31188A568A5B1A368CE
:1011B000013BA36063695A1C62611E702369626906
:1011C0009A4224BFE3686361E3690BB12046984704
:1011D000002080F31188F8BD3946204600F0D6F98A
:1011E0000028E2DA85F31188F8BD000083694269BE
:1011F0009A4210B501D182687AB982680132826060
:101200005A1C82611C7803699A4201D3C3688361C6
:10121000002100F0CBF9204610BD4FF0FF3010BD8B
:101220002DE9F74F05460F4690469A46D0F81C9098
:10123000202686F311884FF0000B144664B1224635
:1012400039462846FFF7EEFE034668B95146284660
:1012500000F09CF90028F1D0002383F31188A8EB5B
:10126000040003B0BDE8F08FB9F1000F03D0019086
:101270002846C847019B8BF31188E41A1F4486F364
:101280001188DBE7026843681143016003B1184726
:10129000704700001430FFF743BF00004FF0FF33EA
:1012A0001430FFF73DBF00003830FFF7B9BF000032
:1012B0004FF0FF333830FFF7B3BF00001430FFF7B3
:1012C00009BF00004FF0FF311430FFF703BF0000EB
:1012D0003830FFF763BF00004FF0FF323830FFF7C0
:1012E0005DBF000000207047FFF76EBD044B036038
:1012F000002343608360C36001230374704700BF11
:10130000B420000810B52023044683F31188FFF7AA
:1013100085FD02232374002383F3118810BD000090
:1013200038B5C36904460D461BB904210844FFF7CC
:10133000A9FF294604F11400FFF7B0FE002806DAE1
:10134000201D4FF48061BDE83840FFF79BBF38BDDA
:10135000024B00221B605B609A607047E82500200A
:10136000002303748268054B1B6899689142FBD285
:101370005A6803604260106058607047E82500209A
:1013800008B5202383F31188037C032B05D0042B9D
:101390000DD02BB983F3118808BD436900221A6070
:1013A0004FF0FF334361FFF7DBFF0023F2E790E8E4
:1013B0000C001A6002685360F2E700000023037417
:1013C0008268054B1B6899689142FBD85A68036094
:1013D0004260106058607047E8250020054B19698D
:1013E0000874186802681A60536018610123037456
:1013F000FEF78CBFE825002030B54B1C87B00546B2
:101400000A4C10D023690A4A01A800F0E9F82846DE
:10141000FFF7E4FF049B13B101A800F01FF9236953
:10142000586907B030BDFFF7D9FFF8E7E82500207D
:101430008113000838B50C4D41612B6981689A68A9
:101440009142044603D8BDE83840FFF789BF1846EB
:10145000FFF7B4FF01232C61014623742046BDE849
:101460003840FEF753BF00BFE8250020044B1A6840
:101470001B6990689B68984294BF002001207047C8
:10148000E825002010B5084C236820691A682260FE
:101490005460012223611A74FFF790FF014620690E
:1014A000BDE81040FEF732BFE8250020FEE700004F
:1014B00010B50C4CFFF74CFF00F084F880220A496D
:1014C000204600F017F8012344F8180C037400F0CC
:1014D000C9FA002383F3118862B60448BDE81040BE
:1014E00000F02AB810260020DC200008E4200008C4
:1014F00000F0F0B882600222027400224274704749
:101500008368A3F17C0243F80C2C026943F83C2C5D
:10151000426943F8382C074A43F81C2CC26843F848
:10152000102C022203F8082C002203F8072CA3F148
:10153000180070472503000810B5202383F3118895
:10154000FFF7DEFF00210446FFF774FF002383F35B
:101550001188204610BD0000024B1B6958610F2006
:10156000FFF73CBFE8250020202383F31188FFF715
:10157000F3BF000008B50146202383F3118808203B
:10158000FFF73AFF002383F3118808BD49B1064BEA
:1015900042681B6918605A60136043600420FFF7BB
:1015A0002BBF4FF0FF307047E825002003689842BA
:1015B00006D01A680260506059611846FFF7D0BE25
:1015C00070470000054B03F114025A619A614FF015
:1015D000FF32DA6100221A62704700BFE82500205E
:1015E000F8B50361C2600E46054600F0BDFA1A4B1D
:1015F00019461F4651F8142F8A420DD11862AE6069
:101600006A602A60022E2CBF801902309D615D61E4
:10161000BDE8F84000F096BA1B6A9268C41A341903
:1016200028BF3446A24202D9181900F099FA7B6902
:101630009A6894420CD8AC6098685A682B60041B76
:101640006A6015605D609C604FF0FF33FB61F8BD20
:10165000A41A1B68ECE700BFE825002038B51C4B36
:1016600001685A6990421D460DD0446821600268A5
:1016700000215460C16091688068014491604FF01E
:10168000FF32DA6138BD1A4642F8141F4A605B69BE
:1016900000219342C16003D1BDE8384000F05ABA3E
:1016A0009A6881680A449A602C6A00F05DFA6A6957
:1016B0009268001B824209D9111A012998BF821C25
:1016C000286ABDE83840104400F04ABA38BD00BF6F
:1016D000E82500202DE9F041184D002705F11406FA
:1016E0006C6900F041FA2A6AA368811A8B4216D805
:1016F00013442B6294E80C001A602268D4F80C8022
:1017000053606B69E760B34201D100F023FA87F3BD
:1017100011882069C047202383F31188E0E76A69B4
:10172000B24208D05B1A022B2CBFC0180230BDE8B1
:10173000F04100F015BABDE8F08100BFE8250020B7
:1017400000207047FEE70000704700004FF0FF30B8
:1017500070470000BFF34F8F024A1369DB03FCD4CC
:10176000704700BF0020024008B5094B1B7873B9D1
:10177000FFF7F0FF074B5A69002ABFBF064A9A607D
:1017800002F188329A601A6822F480621A6008BDF9
:1017900070270020002002402301674508B50B4B4D
:1017A0001B7893B9FFF7D6FF094B5A6942F0004204
:1017B0005A611A6842F480521A601A6822F4805200
:1017C0001A601A6842F480621A6008BD702700200F
:1017D000002002407F289ABF00F58030C002002020
:1017E000704700004FF40060704700008020704791
:1017F0007F2808B50BD8FFF7EDFF00F500630268FE
:10180000013204D104308342F9D1012008BD002007
:1018100008BD00007F2810B504461FD8FFF79AFFC7
:10182000FFF7A2FF0E4BF3221A6102225A615A6996
:1018300042EAC0025A615A6942F480325A61FFF7A3
:1018400089FFFFF7C7FF4FF4006100F0E7F8FFF7EB
:10185000A5FF2046BDE81040FFF7CABF002010BD1D
:10186000002002402DE9F84340EA020313F0070389
:10187000144606D02E4B40F2BF221A600020BDE86D
:10188000F88385182B4A95420CD9294A4FF43171B7
:101890001160F3E7031D1B684A68934208D1083CB6
:1018A00008300831072C14D903680A689342F1D034
:1018B000FFF75AFFFFF74EFF1F4E08314FF00108A8
:1018C0004FF00009012CA1F1080707D8FFF766FFC8
:1018D00001E0002CECD10120BDE8F883C6F81480AB
:1018E000054651F8083C45F8043B51F8043C436078
:1018F000FFF730FFC6F81490026851F8083C9A428E
:101900000CD00B4B40F2EA221A600C4B18600C4BC7
:101910001C600C4B1F60FFF741FFAFE72D680831DB
:1019200051F80C3C9D42ECD1083C0830CAE700BF9E
:101930006C270020FFFF03080020024060270020E2
:101940006827002064270020084908B50B7828B1D3
:1019500053B9FFF709FF01230B7008BD23B1BDE8A0
:1019600008400870FFF71ABF08BD00BF70270020AD
:1019700002440439D2B2904200D17047431C800027
:1019800000F1804000F51450006841F8040FD8B20F
:10199000F1E70000124B10B5D3F89040240409D4AD
:1019A000D3F89040C3F89040D3F8904044F40044FA
:1019B000C3F890400B4C2368024443F480732360C7
:1019C0000439D2B2904200D110BD431C800000F116
:1019D000804000F5145051F8044F0460D8B2F1E78C
:1019E000001002400070004007B5012201A900204C
:1019F000FFF7BEFF019803B05DF804FB13B5044682
:101A0000FFF7F2FFA04206D002A9012241F8044DDF
:101A10000020FFF7BFFF02B010BD000070470000BC
:101A2000034B1B689B0042BF024B01221A70704798
:101A30009410024071270020014B1878704700BFB6
:101A400071270020EFF3098305494A6822F001025B
:101A50004A60683383F30988002383F31188704751
:101A600030EF00E0202080F3118862B60B4B0C4A67
:101A7000D96821F4E0610904090C0A430949DA60D4
:101A8000CA6842F08072CA6007490A6842F00102DF
:101A90000A601022DA7783F82200704700ED00E038
:101AA0000003FA05F0ED00E0001000E010B520237F
:101AB00083F311880E4B5B6813F4006314D0F1EECE
:101AC000103AEFF30984683C4FF08073E361094BEF
:101AD000DB68236684F30988FFF7C8FC10B1064B66
:101AE000A36110BD054BFBE783F3118810BD00BF58
:101AF00000ED00E030EF00E0370300083A03000893
:101B000070470000FEE70000084A094B09498B4274
:101B100004D3094A0021934205D3704752F8040FB9
:101B200043F8040BF3E743F8041BF4E7D42100085F
:101B3000F4270020F4270020F4270020704700003D
:101B400000F07EB84FF08043002258631A610222F1
:101B5000DA6070474FF080430022DA60704700007F
:101B60004FF08043586370474FF08043586A704786
:101B70004B6843608B688360CB68C3600B694361CB
:101B80004B6903628B6943620B6803607047000016
:101B900008B51D4BDA6A42F07F02DA62DA6A22F097
:101BA0007F02DA62DA6ADA6C42F07F02DA64DA6EB5
:101BB00042F07F02DA66154ADB6E11464FF0904024
:101BC000FFF7D6FF124802F11C01FFF7D1FF1148C1
:101BD00002F13801FFF7CCFF0F4802F15401FFF783
:101BE000C7FF0E4802F17001FFF7C2FF0C4802F177
:101BF0008C01FFF7BDFF0B4802F1A801FFF7B8FF0A
:101C0000BDE8084000F070B8001002400421000850
:101C10000004004800080048000C0048001000487C
:101C2000001400480018004808B500F019FAFFF742
:101C30003FFCBDE80840FFF7F3BE0000704700001E
:101C40000F4B9A6D42F001029A659A6F42F00102C1
:101C50009A670C4A9B6F936843F0010393604FF0BF
:101C60008043A7229A624FF0FF32DA6200229A6123
:101C70005A63DA605A6001225A611A60704700BFE5
:101C800000100240002004E04FF0804208B51369C4
:101C9000D1680B40D9B2C9439B07116107D52023F6
:101CA00083F31188FFF724FC002383F3118808BD18
:101CB00008B50B4BD3F8902012F4407F1FBF4FF4B0
:101CC0008032C3F890200022C3F89020D3F89020EF
:101CD000C3F8902000F086F9024B00225A6008BD3C
:101CE0000010024000700040484B4FF0FF319A6AEC
:101CF00099629A6A00229A62986AD86A60F07F00B4
:101D0000D862D86A00F07F00D862D86A186B19636D
:101D1000186B1A63186B986B9963986B9A63986B3E
:101D2000D86BD963D86BDA63D86B186C1964196CEB
:101D30001A641A6C9A6D42F080529A659A6F22F07A
:101D400080529A679A6F324A4FF40071116051695C
:101D500011F48061FBD14FF40040516090604FF46A
:101D60008070D160C2F88000116251629162D162CC
:101D7000116351639163D163116451649164D164BF
:101D800011655165D3F8982042F00102C3F89820FC
:101D9000D3F898209007FBD51A6842F480321A6075
:101DA0001A689103FCD51A490A6842F480720A60E5
:101DB000184ADA601A6842F080721A601A68920152
:101DC000FCD5002214499A60C3F88810C3F89C20FF
:101DD000124A13491160116801F00F010429FAD168
:101DE0009A6842F003029A609A6802F00C020C2A88
:101DF000FAD11A6E42F001021A66D3F8802042F03E
:101E00000102C3F88020D3F88030704700100240F0
:101E100000700040232A610155010050002002405B
:101E200004070400074A08B5536903F0010353612E
:101E300023B1054A13680BB150689847BDE80840C4
:101E4000FFF734BE0004014074270020074A08B59C
:101E5000536903F00203536123B1054A93680BB140
:101E6000D0689847BDE80840FFF720BE0004014055
:101E700074270020074A08B5536903F0040353612F
:101E800023B1054A13690BB150699847BDE8084072
:101E9000FFF70CBE0004014074270020074A08B574
:101EA000536903F00803536123B1054A93690BB1E9
:101EB000D0699847BDE80840FFF7F8BD000401402D
:101EC00074270020074A08B5536903F010035361D3
:101ED00023B1054A136A0BB1506A9847BDE8084020
:101EE000FFF7E4BD0004014074270020164B10B535
:101EF0005C6904F478725A61A30604D5134A936AA4
:101F00000BB1D06A9847600604D5104A136B0BB129
:101F1000506B9847210604D50C4A936B0BB1D06BDC
:101F20009847E20504D5094A136C0BB1506C9847E9
:101F3000A30504D5054A936C0BB1D06C9847BDE856
:101F40001040FFF7B3BD00BF00040140742700201C
:101F5000194B10B55C6904F47C425A61620504D5E2
:101F6000164A136D0BB1506D9847230504D5134ADB
:101F7000936D0BB1D06D9847E00404D50F4A136EF2
:101F80000BB1506E9847A10404D50C4A936E0BB167
:101F9000D06E9847620404D5084A136F0BB1506F96
:101FA0009847230404D5054A936F0BB1D06F984727
:101FB000BDE81040FFF77ABD0004014074270020FF
:101FC00008B50348FEF77AFFBDE80840FFF76EBD8D
:101FD0007C23002008B5FFF757FEBDE80840FFF757
:101FE00065BD0000062108B5084600F023F806216B
:101FF000072000F01FF80621082000F01BF806213A
:10200000092000F017F806210A2000F013F8062135
:10201000172000F00FF80621282000F00BF8072108
:102020001C2000F007F80C212520BDE8084000F036
:1020300001B8000000F1604300F01F02400903F501
:10204000614309018000C9B200F1604083F80013C8
:1020500000F5614001239340C0F880310360704770
:1020600008B5FFF725FE00F009F8FFF73DF9FFF787
:10207000E5FDBDE80840FFF763BD0000002304490B
:102080001A465A50C8180833802B4260F9D170475D
:102090007427002012101213121100000096000085
:1020A0000000000000000000000000000000000030
:1020B0000000000000000000B11200089D1200089E
:1020C000D9120008C5120008D1120008BD1200087C
:1020D000A912000895120008E51200086D61696EEA
:1020E00000000000FC2000082826002060270020B7
:1020F00001000000AD1400080000000069646C6578
:10210000000000000004282800000000AAAABEAABF
:1021100000001400DFFF0000000000007007000056
:102120000000000000000000AAAAAAAA0000000007
:10213000FFFF0000000000000000000000000000A1
:1021400000000000AAAAAAAA00000000FFFF0000E9
:10215000000000000000000000000000000000007F
:10216000AAAAAAAA00000000FFFF000000000000C9
:10217000000000000000000000000000AAAAAAAAB7
:1021800000000000FFFF0000000000000000000051
:102190000000000000000000AAAAAAAA0000000097
:1021A000FFFF000000000000000000000000000031
:1021B00000000000AAAAAAAA00000000FFFF000079
:1021C00000000000000000001004000000000000FB
:0821D00000880300FF0000007D
:00000001FF
