:020000040800F2
:100000000002002079040008F12100089521000871
:10001000D521000895210008B52100087B040008BF
:100020007B0400087B0400087B040008A53000085E
:100030007B0400087B0400087B040008993C00084E
:100040007B0400087B0400087B0400087B04000894
:100050007B0400087B040008CD390008F93900084A
:10006000253A0008513A00087D3A00087B04000850
:100070007B0400087B0400087B0400087B04000864
:100080007B0400087B0400087B040008DD1D0008D9
:10009000091E0008191E00087B040008A93A000880
:1000A0007B0400087B0400087B0400087B04000834
:1000B0007B0400087B0400087B0400087B04000824
:1000C0007B0400087B0400087B0400087B04000814
:1000D0007B0400087B0400087B0400087B04000804
:1000E000113B00087B0400087B0400087B04000827
:1000F0007B0400087B0400087B0400087B040008E4
:100100007B0400087B0400087B0400087B040008D3
:100110007B0400087B0400087B0400087B040008C3
:100120007B0400087B0400087B0400087B040008B3
:100130007B0400087B0400087B0400087B040008A3
:100140007B0400087B0400087B0400087B04000893
:100150007B0400087B0400087B0400087B04000883
:100160006112000800000000000000000000000014
:1001700053B94AB9002908BF00281CBF4FF0FF310E
:100180004FF0FF3000F076B9ADF1080C6DE904CE08
:1001900000F006F8DDF804E0DDE9022304B0704762
:1001A0002DE9F047089E0D4604468846002B4DD1A8
:1001B0008A42944668D9B2FA82F252B101FA02F345
:1001C000C2F1200120FA01F10CFA02FC41EA030815
:1001D00094404FEA1C41B8FBF1F71FFA8CFE01FB7B
:1001E000178807FB0EF0230C43EA084398420AD90C
:1001F0001CEB030307F1FF3580F01E81984240F2AB
:100200001B81023F63441B1AB3FBF1F001FB103367
:1002100000FB0EFEA4B244EA0344A6450AD91CEB37
:10022000040400F1FF3380F00981A64540F2068105
:10023000644402380021A4EB0E0440EA07401EB1DA
:100240000023D440C6E90043BDE8F0878B4208D9BB
:10025000002E00F0EE800021C6E900050846BDE84A
:10026000F087B3FA83F100294AD1AB4202D382422C
:1002700000F2FC80841A65EB030301209846002EEF
:10028000E2D0C6E90048DFE702B9FFDEB2FA82F247
:10029000002A40F09180A1EB0C0001214FEA1C479D
:1002A0001FFA8CFEB0FBF7F307FB1300250C45EAA1
:1002B00000450EFB03F0A84208D91CEB050503F12D
:1002C000FF3802D2A84200F2CE8043462D1AB5FB79
:1002D000F7F007FB10550EFB00FEA4B244EA0544FC
:1002E000A64508D91CEB040400F1FF3502D2A6454F
:1002F00000F2B6802846A4EB0E0440EA03409EE7D5
:10030000C1F120078B4022FA07FC4CEA030C25FAC6
:1003100007FA4FEA1C49BAFBF9F820FA07F309FB80
:1003200018AA8D401FFA8CFE1D4300FA01F308FB4A
:100330000EF02C0C44EA0A44A04202FA01F20BD956
:100340001CEB040408F1FF3A80F08880A04240F2E0
:100350008580A8F102086444241AB4FBF9F009FB73
:10036000104400FB0EFEADB245EA0444A64508D990
:100370001CEB040400F1FF356CD2A6456AD90238A3
:10038000644440EA0840A0FB0295A4EB0E04AC4292
:10039000C846AE4656D353D0002E69D0B3EB080200
:1003A00064EB0E0422FA01F304FA07F71F43CC4072
:1003B000C6E90074002147E70CFA02FCC2F12001F3
:1003C00025FA01F34FEA1C4720FA01F195400D434D
:1003D000B3FBF7F107FB11331FFA8CFE280C40EA40
:1003E000034001FB0EF3834204FA02F408D91CEB2C
:1003F000000001F1FF382FD283422DD90239604429
:10040000C01AB0FBF7F307FB1300ADB245EA004595
:1004100003FB0EF0A84208D91CEB050503F1FF38D9
:1004200016D2A84214D9023B6544281A43EA014176
:1004300038E73146304607E72F46E4E61846F9E646
:100440004B45A9D2B9EB020865EB0C0E0138A3E7C6
:100450004346EAE7284694E74146D1E7D0467BE7A2
:100460006444023847E7023B65442FE7084606E745
:100470003146E9E6704700BF02E000F000F8FEE711
:1004800072B6284880F30888274880F309882748EF
:100490004EF60851CEF200010860022080F3148865
:1004A000BFF36F8F03F01AFA03F0F6F903F018FAAE
:1004B0004FF055301E491B4A91423CBF41F8040B96
:1004C000FAE71C49184A91423CBF41F8040BFAE78D
:1004D00019491A4A1A4B9A423EBF51F8040B42F886
:1004E000040BF8E700201749174A91423CBF41F836
:1004F000040BFAE703F0D4F903F0F4F9134C144DAC
:10050000AC4203DA54F8041B8847F9E700F03CF8E2
:10051000104C114DAC4203DA54F8041B8847F9E73C
:1005200003F0BCB900020020000800200000000811
:1005300000010020000200205041000800080020B7
:1005400080080020800800206C2000206001000846
:100550006401000864010008640100082DE9F04FFF
:10056000C1F80CD0C3689D46BDE8F08F002383F32B
:1005700011882846A047002002F03CFFFEE702F069
:10058000B5FE00DFFEE700002DE9F0412F4A536879
:1005900023F0E06343F0905343F48043536003F04F
:1005A00015F9074603F064F90546B8BB284B9F428E
:1005B00034D001339F4234D0264B27F0FF029A42B9
:1005C00033D1F8B200F066FAA84642F2107400F097
:1005D0006BFC08B10024A04600F062FA064640B366
:1005E0004CBB464635B11C4B9F4203D0002403F060
:1005F00037F92646002003F0F3F80EB100F02EF88C
:1006000000F0B0FC00F03EFE01F0FAFD0546ACB98A
:1006100000F0EEFC012002F0F3FEF8E7A84600240B
:10062000D5E704464FF00108D1E7804641F288340F
:10063000CDE70446D6E74FF47A74D3E701F0E0FD46
:10064000431BA342E4D900F009F8DDE700000140B4
:10065000010007B0000008B0263A09B038B51D4ABD
:100660001D4B1968013134D004339342F9D11B4C2E
:10067000194DD4F80428AA422BD3194B9B6803F1D7
:10068000006303F508439A4223D203F0BDF803F058
:10069000CFF8002000F010FE0220124B187000F07E
:1006A00047FE114BDA690022DA61D96999699A61CA
:1006B0009B6972B64FF0E023C3F8085DD4F80038A8
:1006C000D4F80428202181F311889D4683F30888FB
:1006D000104738BD20880008008800080080000806
:1006E00000080020800800200010024049F2690044
:1006F000084A136899B21B0C00FB013344F25061A5
:100700001360054B186882B2000C01FB02001860F0
:1007100080B27047180800201408002010B5044665
:100720000021102200F020FE034B03CB206061600B
:100730001868A06010BD00BFE8F7FF1F2DE9F04367
:10074000BBB001F05DFD40F2ED22204DAB68C31A55
:10075000934232D906AF2B4628220021A8603846A2
:1007600002F05AFA05F10E0000F0F6FD00260446EC
:100770005FFA80F905F10E08F3B2F100994501F135
:10078000280107D908EB06030822384602F044FA8C
:100790000136F1E708230122CDE902320C4B053482
:1007A00001933023A4B20093CDE9047405A3D3E9E7
:1007B0000023297B074802F045F83BB0BDE8F083F1
:1007C000AFF3008078F6339F93CACD8D981D00203B
:1007D000A51D00209C18002070B50D4614461E462D
:1007E00001F0C6FF50B9022E10D1012C0ED112A378
:1007F000D3E900230120C5E9002307E0282C10D00D
:1008000005D8012C09D0052C0FD0002070BD302C4C
:10081000FBD10BA3D3E90023ECE70BA3D3E900231F
:10082000E8E70BA3D3E90023E4E70BA3D3E9002314
:10083000E0E700BFAFF30080401DA12026812A0B16
:1008400078F6339F93CACD8D9E6AC421818A46EE85
:1008500026417272DF25D7B7F017304A39059E5608
:1008600038B50D460446034620222846002102F0F2
:10087000D3F922792346032A28BF0322284603F806
:10088000042F2021022202F0C7F962792346072AA9
:1008900028BF0722284603F8052F2221032202F051
:1008A000BBF9A2792346072A28BF0722284603F866
:1008B000062F2521032202F0AFF928461022282115
:1008C00004F1080302F0A8F9382038BD2DE9F04FF3
:1008D0000024ADF5037D10AE40F2751280460F4640
:1008E00024A82146239400F03FFD214648223046AB
:1008F00000F03AFD01F084FC4FF47A72B0FBF2F0A4
:10090000544B23AD186093E80700012386E80700E5
:100910000DF162003382FFF701FF4EF6035333847B
:1009200007AB18464C4903F02DFB212229463064C1
:10093000304686F83C20FFF793FF08220446014624
:1009400014AB284602F068F908222846A1180DF1D8
:10095000510302F061F9082228460DF1520304F117
:10096000100102F059F92022284615AB04F11801B4
:1009700002F052F94022284616AB04F1380102F089
:100980004BF90822284618AB04F1780102F044F92B
:10099000082228460DF1610304F1800102F03CF9C0
:1009A00004F1880A0DF1620904F5847B4B46514637
:1009B000082228460AF1080A02F02EF9D34509F167
:1009C0000109F3D10822594628461DAB02F024F94B
:1009D0004FF0000904F5887496F834304B450AD975
:1009E000B36B21464B440822284602F015F908341F
:1009F00009F10109F0E74FF0000996F83C3004EBEB
:100A0000C9014B4508D9336C08224B44284602F0F3
:100A100003F909F10109F0E700230393BB7E0731D5
:100A2000029307F1190301930123C1F3CF01CDE92B
:100A300004510093404605A3D3E90023F97E01F059
:100A400001FF0DF5037DBDE8F08F00BF9E6AC42154
:100A5000818A46EE84080020B43F000810B50A4B96
:100A60000A4A1A6093F8602442B9D3F85C442CB166
:100A7000204601F05BFA204603F01CF9BDE8104067
:100A8000034801F053BA00BFC81800209C4000087A
:100A9000101D0020014B1870704700BF9008002007
:100AA000F0B5334B85B01C7B34B10E22314B1A812B
:100AB0000024204605B0F0BD2F4A02AB10685168F3
:100AC00003C308232D492E480DEB030203F044F91C
:100AD000054630B90A22274B2A481A8101F0A4F9A9
:100AE000E6E70169B1F55E3F06D90B22214B2648A6
:100AF0001A8101F099F9DCE740F2ED32438B934221
:100B000007D00C201B4908811946204801F08CF9B8
:100B1000CFE71F4A024402F11003994204D2102287
:100B2000144B1C481A81E4E710398E1A20461449E8
:100B300001F06CFB07463246204605F1180101F032
:100B400065FBAB689F4202D1EB6898420AD00D2248
:100B5000084B1A8100903B46D5E902120E4801F07D
:100B600063F9A5E70D4801F05FF90124A1E700BF93
:100B7000981D00208408002069400008DC770300ED
:100B800000880008D83F0008E43F0008F63F00084E
:100B90000878FFF714400008314000085A40000868
:100BA0002DE9F04FADB006AF80460C4601F0E0FDF8
:100BB0000546002859D1237E022B1AD1E38A012B46
:100BC00017D101F01DFB0646FFF790FD4FF4C873E7
:100BD000B0FBF3F202FB1300DFF8B49206F51676D1
:100BE00080B2E37E0644C9F8006033B90022A94B05
:100BF0001A709C37BD46BDE8F08FA38AEEB2013B68
:100C0000B34205F101050BD93B1D1E44E900002349
:100C100008222046009601F0F80101F0BFFEECE743
:100C200007F11400FFF77AFD324607F11401381D71
:100C300003F082F803460028D8D10F2E08D8954B30
:100C40001E70D9F80030A3F51673C9F80030D0E74C
:100C5000FA1CF870014600922046072201F09EFE21
:100C60004046F97801F07CFDC3E7E38A282B26D0C3
:100C700010D8012B1ED0052BBBD1BFF34F8F864957
:100C8000864BCA6802F4E0621343CB60BFF34F8F18
:100C900000BFFDE7302BACD1637E814D01336A7B11
:100CA000DBB29342E94603D1E27E2B7B9A4265D0C8
:100CB000CD469EE721464046FFF708FE99E7A38A06
:100CC000013B9BB2C92B94D8754D2E7B26BB05F1F9
:100CD0000C030093082233463146204601F05EFEA5
:100CE000731CF2B2D9001E46A38A013B9A4205DA70
:100CF0000E322A44009200230822EEE7002300224D
:100D0000C5E900230023AB6085F8D730C5F8D8309B
:100D10002B7B0BB9E37E2B73002507F11406082209
:100D2000294630463B1DC7E90155FD6001F074FFBF
:100D30003B7A05F10109AB424FEAC90107D9FB68CB
:100D400008222B44304601F067FF4D46F0E70023B0
:100D5000C1F3CF01E07ECDE904610393A37E193492
:100D60000293282301460093404647A3D3E900237A
:100D7000019401F067FDFFF7E1FC3AE74FF000084E
:100D800007F11403A7F814801022009341460123B1
:100D9000204601F003FEA68A023EB6B2F31C9B1069
:100DA0009B000733DB08A9EBC3039D460DF1180A2E
:100DB0001FFA88F34FEAC801B34201F110010AD2C9
:100DC0000AEB0803009308220023204601F0E6FD09
:100DD00008F10108ECE795F8D70000F077FAD5F8AC
:100DE000D83004461BB995F8D70000F07FFAD5F843
:100DF000D83033449C4204D295F8D700013000F03B
:100E000075FA4FF000084FEA960B1FFA88F18B45F0
:100E1000D5E9003209D90AEB880103EB88000122E9
:100E200000F0AAFA08F10108EFE7F31842F1000216
:100E3000C5E90032D5F8D83095F8D70006EB03089D
:100E4000C5F8D88000F042FA804509D395F8D7302C
:100E5000D5F8D8000133001B85F8D730C5F8D80085
:100E6000FF2E08D800232B7300F052FAFFF718FE6C
:100E700008B1FFF7F3FB2B680A4A9B0A0133138181
:100E80000023AB6014E700BF26417272DF25D7B79D
:100E9000981800209518002000ED00E00400FA05E5
:100EA000981D00208408002030B54FF00054244BDA
:100EB000226885B09A4207D002F0E4FC0446A8B943
:100EC0000024204605B030BD627D1E4B1E481A70BE
:100ED000237DC92203731D490E3000F033FA2046EA
:100EE000E022002100F040FA0124EAE7184A194DF7
:100EF000D36943F00073D361AA6D174B9A42DFD1D7
:100F00002B6E013B7E2BDBD8144A01AB07CA83E86A
:100F100007001846032101F08FF96B6D83424FF0F3
:100F20000003CDD12A6D8A4203BFAB652A6E054B03
:100F30001C4601BF1A70EA6D094B1A60C1E700BF79
:100F40009AAD44C590080020981D0020160000208E
:100F500000100240006600405041A0B058660040BA
:100F600010080020022337B5184D01226B71184B71
:100F70001848196800F02AFE00230193164B174900
:100F800000934FF48052164B164801F0C1FB164BEC
:100F9000197811B1134801F0E3FB01F031F904466F
:100FA000FFF7A4FB4FF4C873B0FBF3F202FB13038B
:100FB00004F516709BB218440C4B186002F058FCF4
:100FC00008B10F232B8103B030BD00BF840800207F
:100FD00010080020C8180020D90700089408002035
:100FE000A10B00089C1800209008002098180020F1
:100FF0002DE9F04F0FF26029D9E900898A4C93B0AE
:101000008A4E8B4F204601F081FC034660B30025D9
:10101000CDE90F550E95ADF84450027BDFF814A2D0
:101020008DF84420996840680FAA03C21B6843F0FA
:1010300000430E9301F0E6F8821941F100033846AF
:1010400000950EA900F008FAA84205DD204601F03F
:1010500061FC8AF80050D5E79AF80030072B00F2BF
:10106000B78001338AF8003000230BAE704FDFF8F1
:10107000C8A10A93ADF834300B9373604FF0000BA6
:10108000002200230125CDE9002338465B460DF1FF
:101090001D0207A98DF81C508DF81DB000F048FD09
:1010A0009DF81C30002B40F09780204601F060FB3B
:1010B0000646002848D101F0A3F8DFF880A1DAF84D
:1010C0000030984240D301F09BF80746FFF70EFB33
:1010D0004FF4C873B0FBF3F202FB130007F5167769
:1010E00080B20744CAF80070554F0EA897F800B0B8
:1010F000BBF1000F14BF33462B46CBF1100A5FFA49
:101100008AFA8DF82830FFF709FBBAF1060F28BFDD
:101110004FF0060A0EAB03EB0B0152460DF129000E
:1011200000F010F90AAB039318230AF101020293AD
:10113000444BD2B2CDE900530492204638A3D3E900
:10114000002301F017FB3E7001F05AF83E4A3F4D74
:101150001368C31AB3F57A7F2FD3106001F052F8E9
:1011600002460B46204601F0DFFB204601F000FB63
:1011700018B32B7B364E002B14BF0323022373714D
:1011800001F03EF84FF47A73B0FBF3F00EAF30602D
:1011900039463046FFF764FB182302932D4B073086
:1011A000019340F25513C0F3CF00CDE903700093D3
:1011B00042464B46204601F0DDFA2B7B2BB1FFF770
:1011C000BDFA2B7B002B7FF41BAF13B0BDE8F08F73
:1011D000204601F09FFB47E7DAF80C30594683F0D0
:1011E0000803CAF80C3010220EA800F0BDF80DF16B
:1011F0001E0308AA0AA9384600F026FA96E803005A
:101200000FAB83E803009DF8343020468DF844305E
:101210000A9B0EA90E93DDE9082301F045FD2DE799
:10122000401DA12026812A0B9C18002040420F005F
:10123000C81800207D1E0020000C014098180020D6
:101240009518002094180020781E0020981D00207A
:10125000840800207C1E0020F1C6A7C1D068080FBA
:1012600008B5054800F086FABDE808400020034AAA
:10127000034902F019BD00BFC8180020B81E0020A5
:101280005D0A000870B502F071F90024084E094D9E
:10129000308028683388834208D902F063F92B68CC
:1012A00004440133B4F5084F2B60F2D370BD00BF86
:1012B000AC1E0020801E002002F0F6B900F1006094
:1012C000920000F5084002F091B90000054B1A6841
:1012D000054B1B889B1A834202D9104402F042B985
:1012E00000207047801E0020AC1E002038B5044648
:1012F000064D2868204402F03BF928B928682044AC
:10130000BDE8384002F046B938BD00BF801E00205D
:10131000064991F8243033B100230822086A81F885
:101320002430FFF7CBBF0120704700BF841E002090
:10133000022802BF4FF40022014B1A61704700BF20
:10134000000C0140002310B5934203D0CC5CC45480
:101350000133F9E710BD000003460246D01A12F926
:10136000011B0029FAD1704703460244934202D080
:1013700003F8011BFAE770472DE9F8431F4D1446A7
:1013800095F824200746884652BBDFF870909CB33E
:1013900095F824302BB92022FF2148462F62FFF711
:1013A000E3FF95F824004146C0F10802A24228BF9D
:1013B000224605EB8000D6B29200FFF7C3FF95F8F6
:1013C0002430A41B1E44F6B2082E17449044E4B205
:1013D00085F82460DBD1FFF79BFF0028D7D108E018
:1013E0002B6A03EB82038342CFD0FFF791FF0028E3
:1013F000CBD10020BDE8F8830120FBE7841E00204C
:10140000202383F3118862B670470000002383F322
:10141000118862B67047000010B4026854681A461A
:10142000234610BC18470000012070470020704779
:101430000020704770470000704700000020704790
:101440000E20704790F8C804C0F3400070470000B9
:1014500090F9C904704700002DE9F0410C681E4660
:1014600014F00054BDF818706AD10B7B082B67D8B4
:10147000FFF7C6FF4569AB685B010CD4AB681B0185
:1014800008D4AC6814F0805458D1FFF7BFFF204651
:10149000BDE8F08101240B6804F1180C002BBABFE1
:1014A000DB0043F004035B054FEA0C1C45F80C30ED
:1014B0000B684FEA041C13F0804F1CBF05EB0C0EA9
:1014C000DEF88031AC441CBF43F00203CEF880311B
:1014D0000B7B05EB0415CCF884318B68C5F88C3197
:1014E0004B68C5F888310D46DCF8803143F00103C4
:1014F000CCF8803100EB4413C3F86824C3F86C6463
:1015000001F10C0C03F58E6355F804EB654543F8C7
:1015100004EBF9D12D8824341D8000EB4414257987
:1015200007F0030325F00B052B432371FFF76EFF34
:1015300033460697BDE8F04100F098BC0224AAE7C4
:101540004FF0FF30A4E7000038B50446D0F85C0443
:101550000D4600F01FFD1F280AD920222946D4F885
:101560005C0400F08DFDA0F120035842584138BDC5
:101570000020FCE708B5FFF743FFD0F85C0400F05B
:10158000DFFCBDE80840FFF741BF00000022026019
:1015900082814260826070470022002310B5C0E95A
:1015A00000230023044603810C30FFF7EFFF2046A1
:1015B00010BD0000F0B590F8C8340D4613F0040FCC
:1015C000C3F3800108BF114605F1240661F38203CD
:1015D00080F8C83400EB46131B790446D80789B05D
:1015E0002DD572B319072CD404EB45156846FFF7C7
:1015F000D3FF05F58E6303AA05F58F6517461868B6
:101600005968083303C7AB423A46F7D118686946B0
:1016100038609B882046BB80DDE90E23CDE900239E
:101620000123ADF8083023681B6C984704EB46147F
:1016300023791A075CBF43F00803237101E0002AF5
:10164000F4D109B0F0BD00002DE9F047054688B09F
:1016500068469A4688469146FFF7D2FEFFF79CFF00
:10166000D5F85C0400F07EFC1F282AD920226946A8
:10167000D5F85C0400F082FD202822D1444603AE58
:1016800005AB374603CF9F42206061603E4604F1C0
:101690000804F6D1386841462060BB882846A380FC
:1016A000DDE90023C9E90023BDF808304A46AAF85D
:1016B0000030FFF7ABFE534608B0BDE8F04700F03E
:1016C000C3BB0020FFF7A2FE08B0BDE8F087000012
:1016D00000232DE9F0470446C0E90133224B0E46B2
:1016E00040F8183BFFF752FF04F1480704F12800C7
:1016F000FFF752FF3D4604F5896828462035FFF77D
:101700004BFF4545F9D14FF48063C4F84874C4F8E1
:101710004C34002701234FF000084FF00009C4F8B3
:101720005C54C4F85074C4F8547484F8583484F881
:10173000603404F5916504F59D6A45E90889A5F1D1
:101740001800FFF723FF203545F8287C5545F4D1D4
:1017500084F8C96416B1054800F04CFD044B2046DE
:101760006361BDE8F08700BF9C400008744000083A
:101770000064004010B50446034B19784A1C1A70E7
:10178000FFF7A6FF204610BDB41E00202DE9F04350
:1017900000294FD0284F294BB7FBF1F499428CBF59
:1017A0000A231123B4FBF3FC581E03FB1C43C5B2F0
:1017B0002BB102280346F5D80020BDE8F0830CF1D8
:1017C000FF36B6F5806FF7D24FF47A74C5EBC50ECD
:1017D0000EF103034FEAE30909FB0444C3F3C70313
:1017E000E81AC0B209F101088044B4FBF8F4B4F57A
:1017F000617FC2BF0EF1FF33C3F3C703E81A03F1E1
:101800000104C8BFC0B2E4B204440CFB04F4B7FB4B
:10181000F4F4A142D0D1013BDBB20F2BCCD801387C
:10182000C0B20728C8D8002110711680012091701D
:10183000D370C2E70846C0E7005125023F420F00BF
:1018400070B505460E464FF47A746B6901205B68EB
:1018500003F00103B34204D001F0D2FD013CF4D106
:10186000204670BD30B54269936913F0700F16D0F1
:1018700000230B4C936103F1240200EB4212117917
:101880004D0709D5890707D5416954F823508D6064
:10189000117941F0040111710133032BEBD130BDFB
:1018A0008840000873B51D46436916469A68044689
:1018B000D20709D501219A689960C2F3400200213C
:1018C000CDE90065FFF776FE63699A68D1050BD50F
:1018D0004FF480719A6820469960C2F3402201213A
:1018E000CDE90065FFF766FE63699A68D2030BD500
:1018F0004FF480319A6820469960C2F34042022139
:10190000CDE90065FFF756FE204602B0BDE8704005
:10191000FFF7A8BFF8B50446466900296AD106F169
:101920000C073868800768D0386806EB01104FEA6A
:10193000011CD0F8B011D0F8B051490746BFED08EE
:1019400045F000456D0DA561D0F8B011890744BF81
:1019500045F08045A561D0F8B40106EB0C0100F01C
:101960000F0084F82400D1F8B80104F12405207791
:10197000D1F8B801000A6077D1F8B801000CA0775F
:10198000D1F8B801000EE077D1F8BC0184F820004E
:10199000D1F8BC01000A84F82100D1F8BC01000C88
:1019A00084F82200D1F8BC1104F13400090E84F847
:1019B00023103821396004F1180151F8046BA94251
:1019C00040F8046BF9D109880180C4E90A23002397
:1019D0002146238651F8283B20461B6C984794F8F3
:1019E000C834204643F0040384F8C834BDE8F84006
:1019F000FFF738BF06F1100793E7F8BD10B50446AE
:101A000000F000FC02460B4652EA030102D0013A04
:101A100063F100030449086820B12146BDE8104085
:101A2000FFF778BF10BD00BFB01E0020F8B5002141
:101A30001E46FFF7E5FC124F00F58D6501F1240409
:101A400000EB4414237913F0040F0FD1DB060DD5FE
:101A5000D5E900C39445B34108D2436957F821C082
:101A6000C3F808C0237943F004032371013103292B
:101A700005F12005E2D1BDE8F840FFF7C7BC00BF83
:101A80008840000808B5FFF7BBFCFFF7EBFEBDE898
:101A90000840FFF7BBBC0000F8B5436904469868EE
:101AA0000E4600F0E050B0F1E05F1DD0D8B1FFF776
:101AB000A7FC002504F58E6704EB451393F88434E6
:101AC0001A0706D50135032D07F12007F4D10120AF
:101AD00007E05B07F6D43946304600F001FA0028EB
:101AE000F0D1FFF793FCF8BD0120FCE708B5FFF744
:101AF00087FCD0F85C0400F035FAFFF787FC430957
:101B00000CBF0120002008BDF8B51D46002313704E
:101B10000F4606461446FFF7E9FF80F001003870D3
:101B200025B129463046FFF7B7FF2070F8BD000009
:101B3000F8B50C4615461E46074600F063FB0B46FB
:101B40002178024609B9287850B13846FFF76EFF70
:101B5000FFF798FF33462A462146FFF7D5FF0120BD
:101B6000F8BD000010B5FFF74BFC174B0446DA69CF
:101B700042F00072DA611A6942F000721A611A6961
:101B800022F000721A61FFF741FC90F8C834DB07BD
:101B900018D4B9B102211320FFF732FC01F0D2FAB8
:101BA0000221142001F0CEFA0221152001F0CAFA18
:101BB00094F8C83443F0010384F8C834BDE81040F9
:101BC000FFF724BC10BD00BF001002402DE9F04714
:101BD00090F8C9340446012B0F46154688B000F230
:101BE000F9807D4E56F823200AB946F82300D6F82E
:101BF0000090E7602574B9F1000F09D14FF49A60A5
:101C000002F05AF880464946FFF762FDC6F80080A8
:101C100094F8C934012B5CD04FF000080121204614
:101C2000FFF7A0FFFFF7ECFB626901211368204674
:101C300023F0020313606269136843F00103136029
:101C40006369C3F81480FFF7E1FBFFF7F9FD002893
:101C500000F08180D4F85C0400F072F9A14604F130
:101C6000600A202200216846FFF77EFB02A8FFF7EA
:101C70008DFC6A46CDF8188009F58D630DF1180CBE
:101C8000164603CE664518605960324603F10803D4
:101C9000F6D1306809F1200918603279CA451A7105
:101CA000DFD1002694F8C8346A466FF3820384F8C3
:101CB000C83439462046ADF80060ADF802608DF8B2
:101CC0000460FFF763FD6369C0B94FF400421A6016
:101CD00011E0306803685B6B9847014600289BD190
:101CE0003068FFF73FFF30682A46036839465B6873
:101CF0009847002890D108B0BDE8F0876122022DF6
:101D00000CBF4FF0004100211A609DF802309DF891
:101D100003201B06120402F4702203F040731343E5
:101D2000BDF800202046C2F3090213439DF80420A9
:101D3000120502F4E002134362690B43D3611322DC
:101D4000636931465A616269136823F001031360C5
:101D5000FFF776FD08B96369B7E794F8C93493BB18
:101D60006169D1F8002242F00102C1F800226169E4
:101D7000D1F8002222F47C5222F00E02C1F8002297
:101D80006169D1F8002242F46062C1F8002241F694
:101D9000FF716269C2F814326269C2F80432626982
:101DA000C2F80C126269C2F840326269C2F8443269
:101DB00001226369C3F81C226269D2F8003223F061
:101DC0000103C2F8003294F8C83443F0020384F8E7
:101DD000C83490E700208EE7B01E002008B500F060
:101DE00011FA02460B4652EA030102D0013A63F1AE
:101DF00000030449086808B1FFF754FDBDE8084036
:101E000001F07EB9B01E002008B50020FFF7F6FDF6
:101E1000BDE8084001F074B908B50120FFF7EEFDF8
:101E2000BDE8084001F06CB90FB4002004B0704761
:101E300013B56C4684E80600031D94E8030083E8AC
:101E40000500012002B010BDF8B586680D4656B1F8
:101E50001B885B0707D4D0E90037DB6B98472A461D
:101E6000C1B23846B0470120F8BD0000F0B5866821
:101E700005460C4689B05EB1BDF838305B070AD420
:101E8000D0E90037DB6B98472246C1B23846B047ED
:101E9000012009B0F0BD00220023CDE9002300237A
:101EA0000A46ADF8083001F1080603AB1C4610687D
:101EB0005168083203C4B2422346F7D1106820604B
:101EC0009288A28000F0A0F90423ADF808302B68B6
:101ED000CDE900011B6C694628469847D8E7000009
:101EE00030B503680968DD0FB5EBD17F23F060449E
:101EF00021F060424FEAD1700BD0002BB8BFA40C88
:101F00000029B8BF920C944202D034BF01200020B7
:101F100030BD944205D1C1F38070C3F38073834216
:101F2000F6D194422CBF00200120F1E710B5037CCC
:101F3000044613B9006801F0F7FE204610BD00000A
:101F40000023BFF35B8FC360BFF35B8FBFF35B8F77
:101F50008360BFF35B8F7047BFF35B8F0068BFF395
:101F60005B8F704770B505460C30FFF7F5FF05F144
:101F7000080604463046FFF7EFFFA04206D9304678
:101F80006D68FFF7E9FF2C44201A70BD3046FFF75B
:101F9000E3FFF9E770B505464068A0B105F1080018
:101FA000FFF7DAFF05F10C0604463046FFF7D4FFD1
:101FB000844288BF0025304698BF6D68FFF7CCFF8C
:101FC000013C2C44201A70BD38B50C460546FFF77D
:101FD000C9FFA04210D305F10800FFF7BDFF04447C
:101FE0006868BFF35B8FB4FBF0F100FB1144AC6099
:101FF000BFF35B8F012038BD0020FCE72DE9F041E5
:10200000144607460D46FFF7C5FF844228BF044625
:10201000D4B1B84658F80C6B4046FFF79DFF064414
:102020002E6040467E68FFF797FF331A9C4203D824
:1020300001206C60BDE8F0816B603B68A61B064424
:10204000AB600220EE60F5E72046F3E738B50C46BA
:102050000546FFF79FFFA04210D305F10C00FFF7E4
:102060007BFF04446868BFF35B8FB4FBF0F100FBB7
:102070001144EC60BFF35B8F012038BD0020FCE70A
:102080002DE9FF410F46694606466C46FFF7B6FF4D
:10209000002504EBC008444508D06268206879191F
:1020A000FFF750F9636808341D44F4E729463046C9
:1020B000FFF7CCFF284604B0BDE8F081F8B505462F
:1020C0000C300F46FFF748FF05F10806044630467E
:1020D000FFF742FFA042304688BF6C68FFF73CFF25
:1020E000201A386020B130462C68FFF735FF2044B5
:1020F000F8BD0000F7B5174606460D46FFF732FF5C
:10210000B842044628BF3C460190DCB1304601A9E4
:10211000FFF7D4FF019B33B93268C5E90233C5E943
:10212000002401200CE09C4238BF019428600198F3
:1021300084426860F5D9241A02203368EC60AB60F1
:1021400003B0F0BD2046FBE72DE9FF410E4669468E
:10215000FFF7D0FF6C46002504EBC007BC4209D056
:10216000D4F804807019424654F8081BFFF7EAF8C7
:102170004544F3E7284604B0BDE8F08138B505468C
:10218000FFF7E2FF044601462846FFF71DFF204601
:1021900038BD0000EFF30983EFF30583044B9A6B1E
:1021A000DA6A9A6A9A6A9A6A9A6A9A6A9B6AFEE7ED
:1021B00000ED00E0EFF30983EFF30583044B9A6B26
:1021C0009A6A9A6A9A6A9A6A9A6A9B6AFEE700BF52
:1021D00000ED00E0EFF30983EFF30583034B5A6B47
:1021E0009A6A9A6A9A6A9A6A9B6AFEE700ED00E028
:1021F000FEE700000FB408B5029801F09BF8FEE777
:1022000001F092BA01F06ABA01F068BA30B5094D2E
:102210000A4491420DD011F8013B5840082340F385
:102220000004013B2C4013F0FF0384EA5000F6D178
:10223000EFE730BD2083B8ED4FF0FF33F7B500EB8B
:1022400081061946DFF848C0DFF848E0B0421BD0ED
:1022500050F8042B01AF0192042217F8014B81EAD8
:10226000046108240D46DB184941013C002DBCBF28
:1022700083EA0C0381EA0E0114F0FF04F2D1013A63
:1022800012F0FF02E9D1E1E7D843C94303B0F0BD42
:102290009336EAA9EBE1F0422DE9F041C56915B9A1
:1022A000C161BDE8F0814B68AC4623F06047C3F3E1
:1022B0008A4616EA230638BF3E464FEAD37EC3F36A
:1022C00080782B465A68BEEBD27F22F060440AD059
:1022D000002A18DAA40CB44217D19D420FD10D6028
:1022E000DEE71346EEE7A74207D102F08044C2F3CF
:1022F000807242450BD054B1EFE708D2EDE7CCF83D
:1023000000100B60CDE7B44201D0B442E5D81A68A2
:102310009C46002AE5D11960C3E700002DE9F0478B
:102320004FF47F49089D01F007044FEAD508224485
:1023300005F0070500EBD100944201D1BDE8F0871C
:1023400004F0070705F0070A57453E4638BF5646D2
:10235000111BC6F108068E4228BF0E46E108415CFB
:1023600008EBD50E13F80EC0B94029FA06F721FA8A
:102370000AF1FFB28CEA010147FA0AF739408CEA08
:10238000010C03F80EC034443544D5E7082341F26C
:10239000210280EA012001B24000002980B203F14D
:1023A000FF33B8BF504013F0FF03F4D17047000073
:1023B00038B50C468D18A54200D138BD14F8011B64
:1023C000FFF7E4FFF7E700000346006848B1026842
:1023D00019891A60DA88013292B29142DA8038BFE4
:1023E0001A81704770B504460D4688B0202200213E
:1023F0006846FEF7B9FF20460495FFF7E5FF024661
:1024000058B16B46054608AE1C4603CCB442286062
:102410006960234605F10805F6D1104608B070BD85
:10242000082817D909280CD00A280CD00B280CD062
:102430000C280CD00D280CD00E2814BF40203020C2
:1024400070470C20704710207047142070471820E8
:102450007047202070470000082817D90C280CD995
:1024600010280CD914280CD918280CD920280CD9DC
:1024700030288CBF0F200E207047092070470A209B
:1024800070470B2070470C2070470D2070470000EC
:1024900010B54B6823B9CA8A63F30902CA8210BD1A
:1024A000C4681A681C60C360438A013B43824A6067
:1024B000EFE700002DE9F84F1D46CB8A0F46C3F326
:1024C00009010629814692460B4630D00020AAB267
:1024D00007F119049EB2052E1FFA80F80FD8904517
:1024E00003F1010306D3FB8A0A4462F309030120C6
:1024F000FB821AE01AF800600130E654EAE79045E2
:10250000F1D21C23A1F1060BBBFBF3F203FB12BBC0
:102510007C681FFA8BF6002C45D14846FFF754FF24
:10252000044638B978606FF00200BDE8F88F4FF0CC
:102530000008E6E70026066078604FF0000BADB2B9
:10254000454510D90AEB0803221D13F8011B08F1B9
:1025500001089155B1B21B291FFA88F82BD04545C7
:1025600006F10106F1D8FB8AC3F30902154465F3AD
:102570000903BCE71C46013292B22368002BF9D153
:10258000AB1F0B441C21B3FBF1F301339BB29A4206
:10259000D3D2BBF1000FD0D14846FFF715FF20B9C9
:1025A000C4F800B0BFE70122E7E7C0F800B05E461C
:1025B00020600446C1E74545D5D94846FFF704FFEA
:1025C00008B92060AFE7C0F800B0002620600446DC
:1025D000B6E700002DE9F04F85B007469146CDE9FA
:1025E0000113BDF83C50002A00F08F802DB10E9BE6
:1025F000002B00F08A80072D30D807F10C00FFF780
:10260000E3FE044628B96FF00204204605B0BDE899
:10261000F08F14220021FEF7A7FE2A460E9904F13E
:102620000800FEF78FFE681CC0B2FFF715FFFFF72A
:10263000F7FE207499F80020431E9BB202F01F029F
:10264000234462F03F021A72019B384643F0004176
:1026500061602146FFF720FE0124D6E74FF0000815
:102660004FF0800A4646444600F10C03039303985A
:10267000FFF7AAFE83460028C5D014220021FEF7EA
:1026800073FE002E38D10220029BABF808300E9B5F
:1026900000F10802D2B299195A440130C0B2082898
:1026A00001D0AE422AD3FFF7D7FEFFF7B9FEAE4204
:1026B00008BF4FF0400A99F80020019B411E02F02C
:1026C0001F0242EA4812C9B24AEA020A594443F0D8
:1026D000004281F808A08BF8100059463846CBF824
:1026E0000420FFF7D9FD0134AE424FF0000A24B2B6
:1026F00088F00108BBD188E70020C8E711F801CBBA
:10270000013602F801CBB6B2C7E76FF001047CE7EF
:10271000F8B5044615460E46282200211F46FEF74E
:1027200023FE069BB5F5001F6360079B28BF4FF68D
:10273000FF7223624FF0000338BF6A09A76004F1FB
:102740000C0097B29A4205D8002303602782638267
:10275000A382F8BD0660013330462036F2E7000060
:1027600003781BB94BB2002BC8BF01707047000043
:10277000007870472DE9F74FDDF83C90804692468F
:102780009B46BDF830500D9E9DF83840BDF8407016
:10279000B9F1000F01D1002F51D11F2C4FD898F85B
:1027A0000000B0B9072F47D835F0030347D13A46A8
:1027B00049464FF6FF70FFF7FBFD20F001002D02A8
:1027C000400445EA0464400C44EA40244FF6FF7399
:1027D00021E040EA0520072F40EA0464F6D90025ED
:1027E0004FF6FF73C5F12000A5F120022AFA05F18A
:1027F0000BFA00F001432BFA02F211431846C9B25A
:10280000FFF7C4FD0835402D0346EBD13A46494653
:10281000FFF7CEFD0346324621464046CDE90097FC
:10282000FFF7D8FE33780133DBB21F2B88BF0023BC
:10283000337003B0BDE8F08F6FF00300F9E76FF07D
:102840000100F6E72DE9F04F85B0DDF848809246AB
:1028500006469B460F9D9DF840209DF84490BDF88C
:102860004C70B8F1000F01D1002F48D11F2A46D873
:102870003378002B46D00C0244EA02649DF83810ED
:1028800044EAC93444EA01441C43072F44F080045D
:1028900032D900234FF6FF72C3F1200CA3F12000C0
:1028A0002AFA03F10BFA0CFC41EA0C012BFA00F0B6
:1028B0000143C9B210460393FFF768FD039B02462C
:1028C0000833402BE8D13A464146FFF771FD0346F5
:1028D0002A4621463046CDE90087FFF77BFEB9F155
:1028E000010F06D12B780133DBB21F2B88BF0023E9
:1028F0002B7005B0BDE8F08F4FF6FF73E8E76FF07F
:102900000100F6E76FF00300F3E70000C06900B1D3
:1029100004307047C3691A68C261C2681A60C36034
:10292000438A013B438270472DE9F041D0F818807B
:1029300014461D4641460027174E09B9BDE8F081EF
:10294000D1E90223A21A65EB0303964277EB030356
:102950001ED283698B420DD1FFF79AFD83691B68F4
:102960008361C3680B60438AC1608169013B88460B
:102970004382E2E7FFF78CFD0B68C8F80030C368BC
:102980000B60438AC160013B4382D8F80010D4E752
:1029900088460968D1E700BF80841E002DE9F04F0A
:1029A0008BB00D4614469B468046DDF850900028BB
:1029B00000F01A81B9F1000F00F01681531E3F2B71
:1029C00000F21281012A03D1BBF1000F40F00C810B
:1029D0000023CDE90833B8F81430B5EBC30F4FEA44
:1029E000C30703D300200BB0BDE8F08F2B199F4223
:1029F000D8F80C3036BF7F1B2746FFB21BB9D8F87A
:102A00001030002B7BD02F2D4ED8C5F13006B742A9
:102A10004FF0000334BF3E46F6B2009329463246DB
:102A2000D8F8080008ABFFF779FCA7EB060A354495
:102A30005FFA8AFA3021B8F8143003F10053063BEC
:102A4000DB000493D8F80C300393039B13B1BAF165
:102A5000000F2CD1D8F8100040B1BAF1000F05D00A
:102A60005246009608AB691AFFF758FC38B2002F9F
:102A7000B8D066070AD00AAB03EBD40111F8083CC2
:102A8000624202F00702134101F8083C082C3DD9CC
:102A9000102C40F2B680202C40F2B880BBF1000F21
:102AA00000F09D80082335E0BA460026C2E7049B6B
:102AB000E02B28BFE02306930B44AB42059315D9C6
:102AC0005A1B924538BF5246039828BFD2B200968F
:102AD000691A08AB04300792FFF720FC079A1644E6
:102AE000AAEB020A1544F6B25FFA8AFA049B069A28
:102AF00005999B1A0493039B1B680393A5E7009316
:102B00003A462946D8F8080008ABADE7BBF1000FFC
:102B100013D00123B4EBC30F6CD0082C12D89DF84E
:102B20002030621E23FA02F2D50706D54FF0FF329D
:102B300002FA04F423438DF820309DF8203089F800
:102B4000003050E7102C12D8BDF82030621E23FA56
:102B500002F2D10706D54FF0FF3202FA04F4234304
:102B6000ADF82030BDF82030A9F800303BE7202C2C
:102B70000FD80899631E21FA03F3DA0705D54FF041
:102B8000FF3202FA04F40C430894089BC9F80030A1
:102B900029E7402C2BD0DDE90865611EC4F1210234
:102BA000A4F1210326FA01F105FA02F225FA03F352
:102BB00011431943CB0712D50122A4F12003C4F11C
:102BC000200102FA03F322FA01F1A240524243EA41
:102BD000010363EB430332432B43CDE90823DDE9D3
:102BE0000823C9E90023FEE66FF00100FBE66FF061
:102BF0000800F8E6082CA0D9102CB3D9202CEED868
:102C0000C3E7BBF1000FADD0022383E7BBF1000F98
:102C1000BBD004237EE70000012A30B5144638BF3C
:102C200001220025402A28BF402285B0012CCDE991
:102C3000025517D81B788DF8083053070AD004AB1B
:102C400003EBD20515F8083C544204F00704A340F6
:102C500005F8083C0346009102A80021FFF75EFB3F
:102C600005B030BD082CE5D9102C03D81B88ADF871
:102C70000830E2E7202C02D81B680293DDE7D3E995
:102C80000045CDE90245D8E710B5CB681BB98B608C
:102C90000B618B8210BDC4681A681C60C360438AD4
:102CA000013B4382CA60F0E72DE9F04FD1F8008084
:102CB00093B018F0800FCDE90323C8F3C01207BF0B
:102CC0004FF0020B1646C8F3C03BC8F30626B8F116
:102CD000000F04460D4680F2D48118F0C0430593DE
:102CE00040F0CF810B7B002B00F0CB81BBF1020FBA
:102CF00003D00178B14240F0C78108F07F0107910D
:102D00007AB3C8F3074A2B4493F80390760646EA51
:102D10000B4608F07F0246EA82465FEAD91346EA8C
:102D20000A06069300F0918000220023CDE90A23D1
:102D300008F07F03009352465B46204667680AA965
:102D4000B84700287ED0A7699FB9314604F10C002E
:102D5000FFF748FB0746E0B96FF0020013B0BDE88B
:102D6000F08FC8F30F2A18F07F0F08BF0AF0030A8C
:102D7000C9E73B699E420DD03F68002FF9D131462B
:102D800004F10C00FFF72EFB07460028E4D0A369EE
:102D90003B60A7610026DDE90A234FF6FF70C6F10C
:102DA000200E22FA06F103FA0EFEA6F1200C23FAF9
:102DB0000CFC41EA0E0141EA0C01C9B20836099245
:102DC0000893FFF7E3FADDE90832402EE7D1B88235
:102DD000FB7D09F01F06C3F384039B1B98B2002BF5
:102DE000BCBF00F120031BB2D7E9022152EA010067
:102DF000C8F304680FD00398821A049860EB0101AD
:102E0000A74890424FF000028A4104D3069A002A54
:102E10005BD0012B23DDFA7D4FEA890302F0030228
:102E200003F07C031343FB7539462046FFF730FB64
:102E3000069BA3B9FB7DC3F38402013262F38603D0
:102E4000FB7504E06FF00B0088E7A76917B96FF016
:102E50000C0083E73B699E42BAD03F68F6E719F061
:102E6000400F32D0039B1422BB60049B0021FB6007
:102E70000DA8FEF779FA039B20460A93049BADF850
:102E80003EA00B932B1D0C932B7B8DF840B0013B88
:102E9000DBB2ADF83C30079B8DF841608DF84330D4
:102EA00094F824308DF8428083F001038DF844308B
:102EB0000AA9A3689847FB7DC3F38403013303F099
:102EC0001F039B02FB82002048E7FB7DC9F34012F1
:102ED000B2EBD31F40F0DB80C3F38403B34240F076
:102EE000D98006992B7B4FEA9912002934D0D2075A
:102EF00041D4032B40F2D180039BAE1DBB60049BE9
:102F00003246FB602B7B3946033BDBB204F10C00FD
:102F1000FFF7D0FA00280DDA20463946FFF7B8FA55
:102F2000FB7D0320C3F38403013303F01F039B02E3
:102F3000FB8213E7AB883B832A7B033AB88AD2B281
:102F40003146FFF735FAFB7DB882DA43C2F3C0128F
:102F500062F3C713FB75B6E76AB92E1D013B324613
:102F60003946DBB204F10C00FFF7A4FA0028D3DBEA
:102F70002A7B013AE2E7F98A013BC1F309010529FD
:102F8000DAB25BD80023281D07F11A0C9A4208D93F
:102F900010F801EB01330CF801E001310629DBB236
:102FA000F4D1934228BF0023039938BF04330A9118
:102FB000049938BFDBB20B9107F11A010C917968C3
:102FC00038BF5B190D910E93FB8AADF83EA0C3F399
:102FD00009031A44079BADF83C208DF8433094F860
:102FE00024308DF840B083F001038DF84430002385
:102FF0008DF841608DF842807B602A7BB88A013A67
:10300000291DFFF7D5F93B8BB882834203D12046B7
:10301000A3680AA9984720460AA9FFF735FEFB7D59
:10302000B88AC3F38403013303F01F039B02FB82BE
:103030003B8B984214BF112000208FE67B68002B49
:10304000AFD0062001E063461C30D3F800C0BCF1CD
:10305000000FF8D1091A081D05F1040C1844DDF819
:1030600014E09DF814308E44BEF11B0F99D89A429B
:1030700097D91CF8013B00F8013B059B01330593F0
:10308000EDE76FF0090069E66FF00A0066E66FF0A1
:103090000D0063E66FF00E0060E66FF00F005DE676
:1030A00080841E00EFF30983203383F30988002313
:1030B00083F3118870470000202080F3118862B6E6
:1030C0000C4B0D4AD96821F4E0610904090C0A434C
:1030D000DA60D3F8FC20094942F08072C3F8FC2082
:1030E0000A6842F001020A601022DA7783F82200AF
:1030F000704700BF00ED00E00003FA05001000E09B
:10310000202310B583F311880B4B5B6813F4006325
:103110000FD0EFF309844FF08073203CE36184F318
:10312000098800F0B9F810B1044BA36110BD044B3D
:10313000FBE783F31188F9E700ED00E07F05000865
:10314000820500080122090100F1604303F5614393
:10315000C9B283F8001300F01F039A4043099B0093
:1031600003F1604303F56143C3F880211A6070479F
:10317000090100F16040C9B200F56D400176704769
:103180000022024BC3E900339A607047BC1E002046
:10319000002382680374054B1B6899689142FBD237
:1031A0005A6803604260106058607047BC1E00207F
:1031B00008B5202383F31188037C032B05D0042B4F
:1031C0000DD02BB983F3118808BD002243691A6022
:1031D0004FF0FF334361FFF7DBFF0023F2E7D0E955
:1031E000003213605A60F3E7002382680374054BD2
:1031F0001B6899689142FBD85A680360426010606E
:1032000058607047BC1E0020054B19690874186887
:10321000026853601A60186101230374FDF79EB9B8
:10322000BC1E002030B54B1C04460B4D87B010D09F
:103230002B690A4A01A800F0FDF82046FFF7E4FFD9
:10324000049B13B101A800F011F92B69586907B06C
:1032500030BDFFF7D9FFF8E7BC1E0020B1310008F0
:1032600038B50C4D41612B6981689A6804469142DA
:1032700003D8BDE83840FFF78BBF1846FFF7B4FF0F
:1032800001232C61014623742046BDE83840FDF738
:1032900065B900BFBC1E0020044B1A681B6990680A
:1032A0009B68984294BF002001207047BC1E0020FC
:1032B00010B5084C236820691A6854602260012206
:1032C00023611A74FFF790FF01462069BDE81040A2
:1032D000FDF744B9BC1E002008B5FFF7DDFF18B1AB
:1032E000BDE80840FFF7E4BF08BD0000FFF7E0BFFE
:1032F000FEE7000010B50C4CFFF742FF00F08CF821
:1033000080220A49204600F03DF8012344F8180CB9
:103310000374FFF7D1FE002383F3118862B6BDE882
:103320001040034800F04EB8E41E0020E0400008C2
:10333000F040000808B572B6034B586200F0C8F9B7
:1033400000F060FAFEE700BFBC1E002000F0A0B84D
:10335000EFF3118020B9EFF30583202282F3118867
:103360007047000010B530B9EFF30584C4F30804CA
:1033700014B180F3118810BDFFF7AEFF84F31188FC
:10338000F9E7000082600222028270478368A3F19D
:103390003C0243F80C2C026943F83C2C426943F888
:1033A000382C074A43F81C2CC268A3F1180043F8D4
:1033B000102C022203F8082C002203F8072C704777
:1033C0006D05000810B5202383F31188FFF7DEFF99
:1033D00000210446FFF744FF002383F311882046B1
:1033E00010BD0000024B1B6958610F20FFF70CBF96
:1033F000BC1E0020202383F31188FFF7F3BF0000D9
:1034000008B50146202383F311880820FFF70AFF3F
:10341000002383F3118808BD054B03F11402C3E9AF
:1034200005224FF0FF32DA6100221A62704700BFB6
:10343000BC1E002010B5C0E903230B4A136A536970
:103440009C68A1420CD85C68816003604460206085
:1034500058609868411A99604FF0FF33D36110BDEE
:103460001B68091BECE700BFBC1E002003688168D5
:103470009A680A449A60426813605A6000234FF0C9
:10348000FF32C360014BDA61704700BFBC1E0020F1
:1034900038B50F4C2246236A0133236252F8143F99
:1034A000934206D020259A68013A9A6063699A6827
:1034B00002B138BDD3E9001001604860D968DA6014
:1034C00082F311881869884785F31188EEE700BFF9
:1034D000BC1E00200C2303604FF0FF30704700003B
:1034E00000207047FEE70000704700004FF0FF30FB
:1034F00070470000BFF34F8F024AD368DB07FCD44C
:10350000704700BF0020024008B5074B1B7853B935
:10351000FFF7F0FF054B1A69120641BF044A5A60D3
:1035200002F188325A6008BDC01F0020002002400E
:103530002301674508B5054B1B7833B9FFF7DAFF60
:10354000034A136943F08003136108BDC01F0020C4
:10355000002002407F289ABF00F58030C002002082
:10356000704700004FF400607047000080207047F3
:103570007F2808B50BD8FFF7EDFF00F50063026860
:10358000013204D104308342F9D1012008BD00206A
:10359000FCE700007F2838B5044623D8FFF7D8FEA3
:1035A000FFF7A8FFFFF7B0FFF3220F4B0546DA60E5
:1035B000022220461A61FFF7CDFF58611A694FF4C5
:1035C000006142F040021A61FFF794FF00F016F923
:1035D0002846FFF7AFFFFFF7C5FE2046BDE838409D
:1035E000FFF7C6BF002038BD002002402DE9F0479C
:1035F000044612F001000E46154606D040F2BD22E8
:10360000234B1A600020BDE8F087224BA2189A4293
:1036100004D940F2C2221E4B1A60F4E7FFF798FE6D
:103620004FF0010AFFF770FFFFF764FFDFF86890C3
:103630003146A61B012D884606EB010705D8FFF78A
:1036400079FFFFF78FFE0120DDE7B8F80030C9F8F9
:1036500010A03B800024FFF74DFFC9F810403B88C5
:1036600031F8022B9BB29A420FD040F2D922084B7C
:103670001A600A4B1F600A4B1D600A4BC3F800809A
:10368000FFF758FFFFF76EFEBCE7023DD2E700BF31
:10369000BC1F00200000040800200240B01F0020D2
:1036A000B81F0020B41F0020084908B50B7828B1C6
:1036B0001BB9FFF729FF01230B7008BD002BFCD0BD
:1036C000BDE808400870FFF735BF00BFC01F0020ED
:1036D0004FF480314FF0005000F092B870B5FFF712
:1036E00037FE4FF47A710D4B0D4E1B6A326801FBA9
:1036F00003F3934237BF0B4A0A495168156836BF36
:103700004C1CD1E9005454605D1944F1000433604D
:10371000FFF728FE2846214670BD00BFBC1E0020D2
:10372000C41F0020C81F002070B5FFF711FE4FF422
:103730007A710F4B0F4E1B6A326801FB03F3934201
:1037400037BF0D4A0C49516815683ABF4C1C54608C
:10375000D1E900545D1944F100043360FFF702FE23
:103760004FF47A72002328462146FCF701FD70BD14
:10377000BC1E0020C41F0020C81F002010B5094C2B
:10378000013AD2B2FF2A00D110BD500854F82030BF
:10379000013054F820009BB243EA004341F8043B57
:1037A000EEE700BF046C004010B50748013AD2B202
:1037B000FF2A00D110BD0C88530840F823404C88E4
:1037C000013340F82340F1E7046C004007B50122C3
:1037D000002001A9FFF7D2FF019803B05DF804FBB8
:1037E00013B50446FFF7F2FFA04205D001220020E6
:1037F00001A90194FFF7D8FF02B010BD7047000087
:10380000704700007047000045F25552064B1A60A1
:1038100002225A6040F6FF729A604CF6CC421A605F
:103820000122024B1A70704700300040D41F002064
:10383000034B1B781BB14AF6AA22024B1A60704751
:10384000D41F002000300040044B1A682AB902F14E
:10385000804202F50432526A1A607047D01F00207D
:103860004FF08072014B5A62704700BF0010024057
:1038700008B5FFF7E9FF024B1868C0F3407008BDB8
:10388000D01F002008B5FFF7DFFF024B1868C0F318
:10389000007008BDD01F002070470000FEE7000048
:1038A0000A4B0B480B4A90420BD30B4BC11EDA1C40
:1038B000121A22F003028B4238BF00220021FDF7CA
:1038C00053BD53F8041B40F8041BECE7D04100083B
:1038D0006C2000206C2000206C200020704700002D
:1038E00000F030B808B500F06DF9FFF703FDBDE852
:1038F0000840FFF7A9BF0000704700004FF0FF31FC
:103900000E4B1A6919611A6900221A611869D86880
:10391000D960D968DA60DA68DA6942F08052DA612F
:10392000DA69DA6942F00062DA61054ADB69136834
:1039300043F48073136000F025B900BF001002400B
:10394000007000401E4B1A6842F001021A601A68AB
:103950009007FCD55A6822F003025A605A6812F0A8
:103960000C02FBD1196801F0F90119605A601A685C
:1039700042F480321A601A689103FCD54EF6316227
:10398000DA625A6842F4E8125A601A6842F08072A9
:103990001A601A689201FCD50A4A0B495A60122231
:1039A0000A600A6802F00702022AFAD15A6842F055
:1039B00002025A605A6802F00C02082AFAD17047D3
:1039C0000010024000641D0000200240084A08B5B3
:1039D000516913680B4003F00103536123B1054A99
:1039E00013680BB150689847BDE80840FFF788BBE3
:1039F00000040140D81F0020084A08B55169136827
:103A00000B4003F00203536123B1054A93680BB1E5
:103A1000D0689847BDE80840FFF772BB000401403A
:103A2000D81F0020084A08B5516913680B4003F0FD
:103A30000403536123B1054A13690BB150699847D8
:103A4000BDE80840FFF75CBB00040140D81F002020
:103A5000084A08B5516913680B4003F00803536125
:103A600023B1054A93690BB1D0699847BDE8084076
:103A7000FFF746BB00040140D81F0020084A08B5E4
:103A8000516913680B4003F01003536123B1054AD9
:103A9000136A0BB1506A9847BDE80840FFF730BB86
:103AA00000040140D81F0020174B10B55A691C684C
:103AB000144004F478725A61A30604D5134A936A39
:103AC0000BB1D06A9847600604D5104A136B0BB14E
:103AD000506B9847210604D50C4A936B0BB1D06B01
:103AE0009847E20504D5094A136C0BB1506C98470E
:103AF000A30504D5054A936C0BB1D06C9847BDE87B
:103B00001040FFF7FDBA00BF00040140D81F00209D
:103B10001A4B10B55A691C68144004F47C425A616F
:103B2000620504D5164A136D0BB1506D98472305F5
:103B300004D5134A936D0BB1D06D9847E00404D5BA
:103B40000F4A136E0BB1506E9847A10404D50C4A6E
:103B5000936E0BB1D06E9847620404D5084A136F78
:103B60000BB1506F9847230404D5054A936F0BB1EE
:103B7000D06F9847BDE81040FFF7C2BA000401407B
:103B8000D81F0020062108B50846FFF7DBFA0621FA
:103B90000720FFF7D7FA06210820FFF7D3FA0621FE
:103BA0000920FFF7CFFA06210A20FFF7CBFA0621FA
:103BB0001720FFF7C7FABDE8084006212820FFF7C5
:103BC000C1BA000008B5FFF799FE044800F00AF8F2
:103BD000FFF792FEBDE8084000F002B80841000877
:103BE00000F042B8002319461C4A0133102BC2E9E9
:103BF000001102F10802F8D1194B9A6942F07D02D6
:103C00009A619B690268174BDA6082685A60426861
:103C10001A60C26803F58063DA6042695A6002691B
:103C20001A608269C3F80C24026AC3F80424C269CA
:103C3000C3F80024426AC3F80C28C26AC3F80428F7
:103C4000826AC3F80028026BC3F80C2C826BC3F89D
:103C5000042C426BC3F8002C704700BFD81F002013
:103C600000100240000801404FF0E023044A082100
:103C70005A6100229A6107220B201A61FFF778BA75
:103C80003F19010008B5202383F31188FFF75EFB7D
:103C9000002383F3118808BD08B5FFF7F3FFBDE8E3
:103CA0000840FFF72DBA00000B460146184600F009
:103CB00025B8000000F038B8012838BF012010B541
:103CC0000446204600F028F830B900F007F808B99B
:103CD00000F00CF88047F4E710BD0000024B1868B4
:103CE000BFF35B8F704700BF58200020062008B547
:103CF00000F02CF90120FFF7F5FB000010B5044699
:103D00000448134620B10A4602202146AFF3008042
:103D100010BD00BF00000000024B0146186800F013
:103D200083B800BF1C080020024B0146186800F051
:103D300033B800BF1C08002010B50139024490427E
:103D400001D1002005E0037811F8014FA34201D012
:103D5000181B10BD0130F2E72DE9F0419BB104467C
:103D6000C91A1778014403F1FF3C8C42204601D95F
:103D7000002008E005780134BD42F6D10CEB0405C3
:103D8000D618A54201D1BDE8F08115F8018D16F8CD
:103D900001EDF045F5D0E8E738B50546002940D0FB
:103DA00051F8043C0C1F002BB8BFE41800F0F2F8E7
:103DB0001C4A136833B9636014602846BDE8384074
:103DC00000F0EEB8A34208D9206821188B4201BF49
:103DD00019685B6809182160EDE71A465B680BB14A
:103DE000A342FAD911685018A0420BD120680144AF
:103DF000501883421160E0D118685B68014411607B
:103E00005360DAE702D90C232B60D6E7206821182B
:103E10008B4201BF19685B680918216063605460B8
:103E2000CBE738BD5C200020F8B5CD1C25F003059C
:103E300008350C2D38BF0C25002D064601DBA942A4
:103E400003D90C2333600020F8BD00F0A3F821490A
:103E50000A6814469CB9204F3B6823B92146304676
:103E600000F03CF838602946304600F037F8431C33
:103E700023D10C233046336000F092F8E3E7236847
:103E80005B1B17D40B2B03D923601C44256004E073
:103E90006368A2420CBF0B605360304600F080F8AC
:103EA00004F10B00231D20F00700C21ACCD01B1A0E
:103EB000A350C9E722466468CCE7C41C24F003047D
:103EC000A042E3D0211A304600F008F80130DDD1DD
:103ED000CFE700BF5C2000206020002038B5002321
:103EE000054D044608462B60FFF7F4FA431C02D147
:103EF0002B6803B1236038BD642000201F2938B52A
:103F000004460D4604D9162303604FF0FF3038BD38
:103F1000426C12B152F821304BB9204600F030F813
:103F20002A4601462046BDE8384000F017B8012B6C
:103F30000AD0591C03D1162303600120E7E70024AF
:103F4000284642F8254098470020E0E7024B01460A
:103F50001868FFF7D3BF00BF1C08002038B5002346
:103F6000064D0446084611462B60FFF7BFFA431C76
:103F700002D12B6803B1236038BD00BF642000204C
:103F8000FFF7AEBA034611F8012B03F8012B002A04
:103F9000F9D17047014800F009B800BF682000203F
:103FA000014800F005B800BF6820002070470000FD
:103FB000704700006F72672E6172647570696C6F74
:103FC000742E61705F7065726970685F5A756261A6
:103FD00078474E53530000004E6F2061707020737D
:103FE00069670A00426164206677206C656E6774B9
:103FF000682025750A0042616420626F6172645F07
:1040000069642025752073686F756C642062652073
:1040100025750A00426164206677206465736372C7
:104020006970746F72206C656E6774682025750AFC
:104030000042616420617070204352432030782533
:104040003038783A30782530387820307825303854
:10405000783A3078253038780A00476F6F642066E8
:1040600069726D776172650A0040A2E4F16468913B
:10407000060000004261642043414E496661636569
:1040800020696E6465782E008000000000800000CA
:10409000000080000000000000000000191400086B
:1040A000CD1B0008311B0008291400085914000812
:1040B000491600082D1400084114000831140008A6
:1040C000351400083D14000839140008751500085F
:1040D00045140008311E0008511400084915000855
:1040E0006D61696E0000000069646C65000000008D
:1040F000E8400008001F0020B01F00200100000061
:10410000F1320008000000000C880000447B4444A9
:1041100044544424800E000044141114947B4444FD
:10412000000000004444444444444444040000006B
:104130004442444444444444000000004444444451
:10414000444444445CC0FF7F0100000000000000C4
:10415000ED030000000000000078030000000000F4
:1041600040420F00FE2A0100D20400002008002077
:10417000000000000000000000000000000000003F
:10418000000000000000000000000000000000002F
:10419000000000000000000000000000000000001F
:1041A000000000000000000000000000000000000F
:1041B00000000000000000000000000000000000FF
:1041C00000000000000000000000000000000000EF
:00000001FF
